{
  "_format": "hh-sol-artifact-1",
  "contractName": "ZeroLossLottery",
  "sourceName": "contracts/ZeroLossLottery.sol",
  "abi": [
    {
      "inputs": [
        {
          "internalType": "address",
          "name": "_pyusdAddress",
          "type": "address"
        }
      ],
      "stateMutability": "nonpayable",
      "type": "constructor"
    },
    {
      "anonymous": false,
      "inputs": [
        {
          "indexed": false,
          "internalType": "address",
          "name": "firstWinner",
          "type": "address"
        },
        {
          "indexed": false,
          "internalType": "address",
          "name": "secondWinner",
          "type": "address"
        }
      ],
      "name": "DrawCompleted",
      "type": "event"
    },
    {
      "anonymous": false,
      "inputs": [
        {
          "indexed": false,
          "internalType": "address",
          "name": "user",
          "type": "address"
        },
        {
          "indexed": false,
          "internalType": "uint256",
          "name": "refundAmount",
          "type": "uint256"
        },
        {
          "indexed": false,
          "internalType": "uint256",
          "name": "prizeAmount",
          "type": "uint256"
        }
      ],
      "name": "FundsClaimed",
      "type": "event"
    },
    {
      "anonymous": false,
      "inputs": [
        {
          "indexed": false,
          "internalType": "uint256",
          "name": "amount",
          "type": "uint256"
        }
      ],
      "name": "InterestAdded",
      "type": "event"
    },
    {
      "anonymous": false,
      "inputs": [
        {
          "indexed": true,
          "internalType": "address",
          "name": "previousOwner",
          "type": "address"
        },
        {
          "indexed": true,
          "internalType": "address",
          "name": "newOwner",
          "type": "address"
        }
      ],
      "name": "OwnershipTransferred",
      "type": "event"
    },
    {
      "anonymous": false,
      "inputs": [
        {
          "indexed": false,
          "internalType": "address",
          "name": "buyer",
          "type": "address"
        },
        {
          "indexed": false,
          "internalType": "uint256",
          "name": "numTickets",
          "type": "uint256"
        }
      ],
      "name": "TicketsPurchased",
      "type": "event"
    },
    {
      "inputs": [
        {
          "internalType": "uint256",
          "name": "percentage",
          "type": "uint256"
        }
      ],
      "name": "addInterest",
      "outputs": [],
      "stateMutability": "nonpayable",
      "type": "function"
    },
    {
      "inputs": [
        {
          "internalType": "uint256",
          "name": "numTickets",
          "type": "uint256"
        }
      ],
      "name": "buyTickets",
      "outputs": [],
      "stateMutability": "nonpayable",
      "type": "function"
    },
    {
      "inputs": [],
      "name": "claimFunds",
      "outputs": [],
      "stateMutability": "nonpayable",
      "type": "function"
    },
    {
      "inputs": [],
      "name": "claimPlatformFee",
      "outputs": [],
      "stateMutability": "nonpayable",
      "type": "function"
    },
    {
      "inputs": [],
      "name": "drawCompleted",
      "outputs": [
        {
          "internalType": "bool",
          "name": "",
          "type": "bool"
        }
      ],
      "stateMutability": "view",
      "type": "function"
    },
    {
      "inputs": [
        {
          "internalType": "uint256",
          "name": "seed",
          "type": "uint256"
        }
      ],
      "name": "drawWinners",
      "outputs": [],
      "stateMutability": "nonpayable",
      "type": "function"
    },
    {
      "inputs": [],
      "name": "getParticipants",
      "outputs": [
        {
          "internalType": "address[]",
          "name": "",
          "type": "address[]"
        }
      ],
      "stateMutability": "view",
      "type": "function"
    },
    {
      "inputs": [
        {
          "internalType": "address",
          "name": "",
          "type": "address"
        }
      ],
      "name": "hasClaimed",
      "outputs": [
        {
          "internalType": "bool",
          "name": "",
          "type": "bool"
        }
      ],
      "stateMutability": "view",
      "type": "function"
    },
    {
      "inputs": [],
      "name": "interestPool",
      "outputs": [
        {
          "internalType": "uint256",
          "name": "",
          "type": "uint256"
        }
      ],
      "stateMutability": "view",
      "type": "function"
    },
    {
      "inputs": [
        {
          "internalType": "address",
          "name": "",
          "type": "address"
        }
      ],
      "name": "isParticipant",
      "outputs": [
        {
          "internalType": "bool",
          "name": "",
          "type": "bool"
        }
      ],
      "stateMutability": "view",
      "type": "function"
    },
    {
      "inputs": [
        {
          "internalType": "address",
          "name": "user",
          "type": "address"
        }
      ],
      "name": "isWinner",
      "outputs": [
        {
          "internalType": "uint8",
          "name": "",
          "type": "uint8"
        }
      ],
      "stateMutability": "view",
      "type": "function"
    },
    {
      "inputs": [],
      "name": "maxTicketsPerUser",
      "outputs": [
        {
          "internalType": "uint256",
          "name": "",
          "type": "uint256"
        }
      ],
      "stateMutability": "view",
      "type": "function"
    },
    {
      "inputs": [],
      "name": "owner",
      "outputs": [
        {
          "internalType": "address",
          "name": "",
          "type": "address"
        }
      ],
      "stateMutability": "view",
      "type": "function"
    },
    {
      "inputs": [
        {
          "internalType": "uint256",
          "name": "",
          "type": "uint256"
        }
      ],
      "name": "participants",
      "outputs": [
        {
          "internalType": "address",
          "name": "",
          "type": "address"
        }
      ],
      "stateMutability": "view",
      "type": "function"
    },
    {
      "inputs": [],
      "name": "pyusd",
      "outputs": [
        {
          "internalType": "contract IERC20",
          "name": "",
          "type": "address"
        }
      ],
      "stateMutability": "view",
      "type": "function"
    },
    {
      "inputs": [],
      "name": "renounceOwnership",
      "outputs": [],
      "stateMutability": "nonpayable",
      "type": "function"
    },
    {
      "inputs": [],
      "name": "ticketPrice",
      "outputs": [
        {
          "internalType": "uint256",
          "name": "",
          "type": "uint256"
        }
      ],
      "stateMutability": "view",
      "type": "function"
    },
    {
      "inputs": [
        {
          "internalType": "address",
          "name": "",
          "type": "address"
        }
      ],
      "name": "tickets",
      "outputs": [
        {
          "internalType": "uint256",
          "name": "",
          "type": "uint256"
        }
      ],
      "stateMutability": "view",
      "type": "function"
    },
    {
      "inputs": [],
      "name": "totalTickets",
      "outputs": [
        {
          "internalType": "uint256",
          "name": "",
          "type": "uint256"
        }
      ],
      "stateMutability": "view",
      "type": "function"
    },
    {
      "inputs": [
        {
          "internalType": "address",
          "name": "newOwner",
          "type": "address"
        }
      ],
      "name": "transferOwnership",
      "outputs": [],
      "stateMutability": "nonpayable",
      "type": "function"
    },
    {
      "inputs": [
        {
          "internalType": "uint256",
          "name": "",
          "type": "uint256"
        }
      ],
      "name": "winners",
      "outputs": [
        {
          "internalType": "address",
          "name": "",
          "type": "address"
        }
      ],
      "stateMutability": "view",
      "type": "function"
    }
  ],
  "bytecode": "0x6080604052620f4240600255600a6003553480156200001d57600080fd5b5060405162002e6e38038062002e6e8339818101604052810190620000439190620001e1565b6200006362000057620000ab60201b60201c565b620000b360201b60201c565b80600160006101000a81548173ffffffffffffffffffffffffffffffffffffffff021916908373ffffffffffffffffffffffffffffffffffffffff1602179055505062000213565b600033905090565b60008060009054906101000a900473ffffffffffffffffffffffffffffffffffffffff169050816000806101000a81548173ffffffffffffffffffffffffffffffffffffffff021916908373ffffffffffffffffffffffffffffffffffffffff1602179055508173ffffffffffffffffffffffffffffffffffffffff168173ffffffffffffffffffffffffffffffffffffffff167f8be0079c531659141344cd1fd0a4f28419497f9722a3daafe3b4186f6b6457e060405160405180910390a35050565b600080fd5b600073ffffffffffffffffffffffffffffffffffffffff82169050919050565b6000620001a9826200017c565b9050919050565b620001bb816200019c565b8114620001c757600080fd5b50565b600081519050620001db81620001b0565b92915050565b600060208284031215620001fa57620001f962000177565b5b60006200020a84828501620001ca565b91505092915050565b612c4b80620002236000396000f3fe608060405234801561001057600080fd5b50600436106101375760003560e01c8063715018a6116100b85780639d9ca28d1161007c5780639d9ca28d1461031a578063a2fb11751461034a578063ac3077731461037a578063d1d06b2e14610384578063dd11247e146103a0578063f2fde38b146103be57610137565b8063715018a61461028857806373b2e80e146102925780638da5cb5b146102c2578063929066f5146102e05780639c8aea901461031057610137565b806335c1d349116100ff57806335c1d349146101ce5780634f023d58146101fe5780635976c2d21461021c5780635aa68ac01461023a5780636dcbf2a31461025857610137565b80630668732c1461013c5780631209b1f61461015a57806322e669d3146101785780632f366637146101965780633290f515146101b2575b600080fd5b6101446103da565b6040516101519190611cc3565b60405180910390f35b6101626103ed565b60405161016f9190611cf7565b60405180910390f35b6101806103f3565b60405161018d9190611d91565b60405180910390f35b6101b060048036038101906101ab9190611ddd565b610419565b005b6101cc60048036038101906101c79190611ddd565b6108cb565b005b6101e860048036038101906101e39190611ddd565b610b9f565b6040516101f59190611e2b565b60405180910390f35b610206610bde565b6040516102139190611cf7565b60405180910390f35b610224610be4565b6040516102319190611cf7565b60405180910390f35b610242610bea565b60405161024f9190611f04565b60405180910390f35b610272600480360381019061026d9190611f52565b610c78565b60405161027f9190611cf7565b60405180910390f35b610290610c90565b005b6102ac60048036038101906102a79190611f52565b610ca4565b6040516102b99190611cc3565b60405180910390f35b6102ca610cc4565b6040516102d79190611e2b565b60405180910390f35b6102fa60048036038101906102f59190611f52565b610ced565b6040516103079190611cc3565b60405180910390f35b610318610d0d565b005b610334600480360381019061032f9190611f52565b610ebd565b6040516103419190611f9b565b60405180910390f35b610364600480360381019061035f9190611ddd565b610fad565b6040516103719190611e2b565b60405180910390f35b610382610fe3565b005b61039e60048036038101906103999190611ddd565b611512565b005b6103a861186d565b6040516103b59190611cf7565b60405180910390f35b6103d860048036038101906103d39190611f52565b611873565b005b600b60009054906101000a900460ff1681565b60025481565b600160009054906101000a900473ffffffffffffffffffffffffffffffffffffffff1681565b600b60009054906101000a900460ff1615610469576040517f08c379a000000000000000000000000000000000000000000000000000000000815260040161046090612013565b60405180910390fd5b600081116104ac576040517f08c379a00000000000000000000000000000000000000000000000000000000081526004016104a39061207f565b60405180910390fd5b60035481600460003373ffffffffffffffffffffffffffffffffffffffff1673ffffffffffffffffffffffffffffffffffffffff168152602001908152602001600020546104fa91906120ce565b111561053b576040517f08c379a00000000000000000000000000000000000000000000000000000000081526004016105329061214e565b60405180910390fd5b60006002548261054b919061216e565b905080600160009054906101000a900473ffffffffffffffffffffffffffffffffffffffff1673ffffffffffffffffffffffffffffffffffffffff166370a08231336040518263ffffffff1660e01b81526004016105a99190611e2b565b602060405180830381865afa1580156105c6573d6000803e3d6000fd5b505050506040513d601f19601f820116820180604052508101906105ea91906121c5565b101561062b576040517f08c379a00000000000000000000000000000000000000000000000000000000081526004016106229061223e565b60405180910390fd5b6000600160009054906101000a900473ffffffffffffffffffffffffffffffffffffffff1673ffffffffffffffffffffffffffffffffffffffff166323b872dd3330856040518463ffffffff1660e01b815260040161068c9392919061225e565b6020604051808303816000875af11580156106ab573d6000803e3d6000fd5b505050506040513d601f19601f820116820180604052508101906106cf91906122c1565b905080610711576040517f08c379a00000000000000000000000000000000000000000000000000000000081526004016107089061233a565b60405180910390fd5b82600460003373ffffffffffffffffffffffffffffffffffffffff1673ffffffffffffffffffffffffffffffffffffffff168152602001908152602001600020600082825461076091906120ce565b92505081905550600660003373ffffffffffffffffffffffffffffffffffffffff1673ffffffffffffffffffffffffffffffffffffffff16815260200190815260200160002060009054906101000a900460ff16610874576005339080600181540180825580915050600190039060005260206000200160009091909190916101000a81548173ffffffffffffffffffffffffffffffffffffffff021916908373ffffffffffffffffffffffffffffffffffffffff1602179055506001600660003373ffffffffffffffffffffffffffffffffffffffff1673ffffffffffffffffffffffffffffffffffffffff16815260200190815260200160002060006101000a81548160ff0219169083151502179055505b826007600082825461088691906120ce565b925050819055507fe11731cb4f1eb3ec3dd09bdc96809bb07365f4c881cda3192b397a4bc0b6da4033846040516108be92919061235a565b60405180910390a1505050565b6108d36118f6565b600060075411610918576040517f08c379a000000000000000000000000000000000000000000000000000000000815260040161090f906123cf565b60405180910390fd5b6000811161095b576040517f08c379a000000000000000000000000000000000000000000000000000000000815260040161095290612461565b60405180910390fd5b6000606482600254600754610970919061216e565b61097a919061216e565b61098491906124b0565b905080600160009054906101000a900473ffffffffffffffffffffffffffffffffffffffff1673ffffffffffffffffffffffffffffffffffffffff166370a08231336040518263ffffffff1660e01b81526004016109e29190611e2b565b602060405180830381865afa1580156109ff573d6000803e3d6000fd5b505050506040513d601f19601f82011682018060405250810190610a2391906121c5565b1015610a64576040517f08c379a0000000000000000000000000000000000000000000000000000000008152600401610a5b9061252d565b60405180910390fd5b6000600160009054906101000a900473ffffffffffffffffffffffffffffffffffffffff1673ffffffffffffffffffffffffffffffffffffffff166323b872dd3330856040518463ffffffff1660e01b8152600401610ac59392919061225e565b6020604051808303816000875af1158015610ae4573d6000803e3d6000fd5b505050506040513d601f19601f82011682018060405250810190610b0891906122c1565b905080610b4a576040517f08c379a0000000000000000000000000000000000000000000000000000000008152600401610b4190612599565b60405180910390fd5b8160086000828254610b5c91906120ce565b925050819055507f56dd29ec2634abdca83537d650dc9fdb9f5171d9643ddfa75c61ff2081024e2282604051610b929190611cf7565b60405180910390a1505050565b60058181548110610baf57600080fd5b906000526020600020016000915054906101000a900473ffffffffffffffffffffffffffffffffffffffff1681565b60035481565b60085481565b60606005805480602002602001604051908101604052809291908181526020018280548015610c6e57602002820191906000526020600020905b8160009054906101000a900473ffffffffffffffffffffffffffffffffffffffff1673ffffffffffffffffffffffffffffffffffffffff1681526020019060010190808311610c24575b5050505050905090565b60046020528060005260406000206000915090505481565b610c986118f6565b610ca26000611974565b565b600c6020528060005260406000206000915054906101000a900460ff1681565b60008060009054906101000a900473ffffffffffffffffffffffffffffffffffffffff16905090565b60066020528060005260406000206000915054906101000a900460ff1681565b610d156118f6565b600b60009054906101000a900460ff16610d64576040517f08c379a0000000000000000000000000000000000000000000000000000000008152600401610d5b90612605565b60405180910390fd5b600060646014600854610d77919061216e565b610d8191906124b0565b905060008111610dc6576040517f08c379a0000000000000000000000000000000000000000000000000000000008152600401610dbd90612671565b60405180910390fd5b6000600160009054906101000a900473ffffffffffffffffffffffffffffffffffffffff1673ffffffffffffffffffffffffffffffffffffffff1663a9059cbb610e0e610cc4565b846040518363ffffffff1660e01b8152600401610e2c92919061235a565b6020604051808303816000875af1158015610e4b573d6000803e3d6000fd5b505050506040513d601f19601f82011682018060405250810190610e6f91906122c1565b905080610eb1576040517f08c379a0000000000000000000000000000000000000000000000000000000008152600401610ea8906126dd565b60405180910390fd5b610eb9611a38565b5050565b60006009600060028110610ed457610ed36126fd565b5b0160009054906101000a900473ffffffffffffffffffffffffffffffffffffffff1673ffffffffffffffffffffffffffffffffffffffff168273ffffffffffffffffffffffffffffffffffffffff1603610f315760019050610fa8565b6009600160028110610f4657610f456126fd565b5b0160009054906101000a900473ffffffffffffffffffffffffffffffffffffffff1673ffffffffffffffffffffffffffffffffffffffff168273ffffffffffffffffffffffffffffffffffffffff1603610fa35760029050610fa8565b600090505b919050565b60098160028110610fbd57600080fd5b016000915054906101000a900473ffffffffffffffffffffffffffffffffffffffff1681565b600b60009054906101000a900460ff16611032576040517f08c379a000000000000000000000000000000000000000000000000000000000815260040161102990612605565b60405180910390fd5b6000600460003373ffffffffffffffffffffffffffffffffffffffff1673ffffffffffffffffffffffffffffffffffffffff16815260200190815260200160002054116110b4576040517f08c379a00000000000000000000000000000000000000000000000000000000081526004016110ab90612778565b60405180910390fd5b600c60003373ffffffffffffffffffffffffffffffffffffffff1673ffffffffffffffffffffffffffffffffffffffff16815260200190815260200160002060009054906101000a900460ff1615611141576040517f08c379a0000000000000000000000000000000000000000000000000000000008152600401611138906127e4565b60405180910390fd5b6000600254600460003373ffffffffffffffffffffffffffffffffffffffff1673ffffffffffffffffffffffffffffffffffffffff16815260200190815260200160002054611190919061216e565b9050600060096000600281106111a9576111a86126fd565b5b0160009054906101000a900473ffffffffffffffffffffffffffffffffffffffff1673ffffffffffffffffffffffffffffffffffffffff163373ffffffffffffffffffffffffffffffffffffffff160361121f576064603260085461120e919061216e565b61121891906124b0565b90506112a7565b6009600160028110611234576112336126fd565b5b0160009054906101000a900473ffffffffffffffffffffffffffffffffffffffff1673ffffffffffffffffffffffffffffffffffffffff163373ffffffffffffffffffffffffffffffffffffffff16036112a6576064601e600854611299919061216e565b6112a391906124b0565b90505b5b6001600c60003373ffffffffffffffffffffffffffffffffffffffff1673ffffffffffffffffffffffffffffffffffffffff16815260200190815260200160002060006101000a81548160ff0219169083151502179055506000600160009054906101000a900473ffffffffffffffffffffffffffffffffffffffff1673ffffffffffffffffffffffffffffffffffffffff1663a9059cbb33856040518363ffffffff1660e01b815260040161135e92919061235a565b6020604051808303816000875af115801561137d573d6000803e3d6000fd5b505050506040513d601f19601f820116820180604052508101906113a191906122c1565b9050806113e3576040517f08c379a00000000000000000000000000000000000000000000000000000000081526004016113da90612850565b60405180910390fd5b60008211156114d2576000600160009054906101000a900473ffffffffffffffffffffffffffffffffffffffff1673ffffffffffffffffffffffffffffffffffffffff1663a9059cbb33856040518363ffffffff1660e01b815260040161144b92919061235a565b6020604051808303816000875af115801561146a573d6000803e3d6000fd5b505050506040513d601f19601f8201168201806040525081019061148e91906122c1565b9050806114d0576040517f08c379a00000000000000000000000000000000000000000000000000000000081526004016114c7906128bc565b60405180910390fd5b505b7f4a928ee5d1397dcab0a17b6f9b1e4250d15c6bda472de38c65b38c38ff790d0c338484604051611505939291906128dc565b60405180910390a1505050565b61151a6118f6565b600b60009054906101000a900460ff161561156a576040517f08c379a000000000000000000000000000000000000000000000000000000000815260040161156190612013565b60405180910390fd5b600260058054905010156115b3576040517f08c379a00000000000000000000000000000000000000000000000000000000081526004016115aa9061295f565b60405180910390fd5b6000600854116115f8576040517f08c379a00000000000000000000000000000000000000000000000000000000081526004016115ef906129cb565b60405180910390fd5b60006005805490508242604051602001611613929190612a0c565b6040516020818303038152906040528051906020012060001c6116369190612a38565b90506005818154811061164c5761164b6126fd565b5b9060005260206000200160009054906101000a900473ffffffffffffffffffffffffffffffffffffffff16600960006002811061168c5761168b6126fd565b5b0160006101000a81548173ffffffffffffffffffffffffffffffffffffffff021916908373ffffffffffffffffffffffffffffffffffffffff16021790555060005b6005805490508342846040516020016116e993929190612a69565b6040516020818303038152906040528051906020012060001c61170c9190612a38565b90508181146116ce5760058181548110611729576117286126fd565b5b9060005260206000200160009054906101000a900473ffffffffffffffffffffffffffffffffffffffff166009600160028110611769576117686126fd565b5b0160006101000a81548173ffffffffffffffffffffffffffffffffffffffff021916908373ffffffffffffffffffffffffffffffffffffffff1602179055506001600b60006101000a81548160ff0219169083151502179055507f57eefd11907d420a5bc6da5b06a0825efb7ce425a4699449128c11170d764fbd60096000600281106117f9576117f86126fd565b5b0160009054906101000a900473ffffffffffffffffffffffffffffffffffffffff1660096001600281106118305761182f6126fd565b5b0160009054906101000a900473ffffffffffffffffffffffffffffffffffffffff16604051611860929190612aa6565b60405180910390a1505050565b60075481565b61187b6118f6565b600073ffffffffffffffffffffffffffffffffffffffff168173ffffffffffffffffffffffffffffffffffffffff16036118ea576040517f08c379a00000000000000000000000000000000000000000000000000000000081526004016118e190612b41565b60405180910390fd5b6118f381611974565b50565b6118fe611c54565b73ffffffffffffffffffffffffffffffffffffffff1661191c610cc4565b73ffffffffffffffffffffffffffffffffffffffff1614611972576040517f08c379a000000000000000000000000000000000000000000000000000000000815260040161196990612bad565b60405180910390fd5b565b60008060009054906101000a900473ffffffffffffffffffffffffffffffffffffffff169050816000806101000a81548173ffffffffffffffffffffffffffffffffffffffff021916908373ffffffffffffffffffffffffffffffffffffffff1602179055508173ffffffffffffffffffffffffffffffffffffffff168173ffffffffffffffffffffffffffffffffffffffff167f8be0079c531659141344cd1fd0a4f28419497f9722a3daafe3b4186f6b6457e060405160405180910390a35050565b60005b600580549050811015611c0a5760006004600060058481548110611a6257611a616126fd565b5b9060005260206000200160009054906101000a900473ffffffffffffffffffffffffffffffffffffffff1673ffffffffffffffffffffffffffffffffffffffff1673ffffffffffffffffffffffffffffffffffffffff1681526020019081526020016000208190555060006006600060058481548110611ae557611ae46126fd565b5b9060005260206000200160009054906101000a900473ffffffffffffffffffffffffffffffffffffffff1673ffffffffffffffffffffffffffffffffffffffff1673ffffffffffffffffffffffffffffffffffffffff16815260200190815260200160002060006101000a81548160ff0219169083151502179055506000600c600060058481548110611b7b57611b7a6126fd565b5b9060005260206000200160009054906101000a900473ffffffffffffffffffffffffffffffffffffffff1673ffffffffffffffffffffffffffffffffffffffff1673ffffffffffffffffffffffffffffffffffffffff16815260200190815260200160002060006101000a81548160ff0219169083151502179055508080611c0290612bcd565b915050611a3b565b5060056000611c199190611c5c565b600060078190555060006008819055506000600b60006101000a81548160ff02191690831515021790555060096000611c529190611c7d565b565b600033905090565b5080546000825590600052602060002090810190611c7a9190611c8b565b50565b506000815560010160009055565b5b80821115611ca4576000816000905550600101611c8c565b5090565b60008115159050919050565b611cbd81611ca8565b82525050565b6000602082019050611cd86000830184611cb4565b92915050565b6000819050919050565b611cf181611cde565b82525050565b6000602082019050611d0c6000830184611ce8565b92915050565b600073ffffffffffffffffffffffffffffffffffffffff82169050919050565b6000819050919050565b6000611d57611d52611d4d84611d12565b611d32565b611d12565b9050919050565b6000611d6982611d3c565b9050919050565b6000611d7b82611d5e565b9050919050565b611d8b81611d70565b82525050565b6000602082019050611da66000830184611d82565b92915050565b600080fd5b611dba81611cde565b8114611dc557600080fd5b50565b600081359050611dd781611db1565b92915050565b600060208284031215611df357611df2611dac565b5b6000611e0184828501611dc8565b91505092915050565b6000611e1582611d12565b9050919050565b611e2581611e0a565b82525050565b6000602082019050611e406000830184611e1c565b92915050565b600081519050919050565b600082825260208201905092915050565b6000819050602082019050919050565b611e7b81611e0a565b82525050565b6000611e8d8383611e72565b60208301905092915050565b6000602082019050919050565b6000611eb182611e46565b611ebb8185611e51565b9350611ec683611e62565b8060005b83811015611ef7578151611ede8882611e81565b9750611ee983611e99565b925050600181019050611eca565b5085935050505092915050565b60006020820190508181036000830152611f1e8184611ea6565b905092915050565b611f2f81611e0a565b8114611f3a57600080fd5b50565b600081359050611f4c81611f26565b92915050565b600060208284031215611f6857611f67611dac565b5b6000611f7684828501611f3d565b91505092915050565b600060ff82169050919050565b611f9581611f7f565b82525050565b6000602082019050611fb06000830184611f8c565b92915050565b600082825260208201905092915050565b7f4472617720616c726561647920636f6d706c6574656400000000000000000000600082015250565b6000611ffd601683611fb6565b915061200882611fc7565b602082019050919050565b6000602082019050818103600083015261202c81611ff0565b9050919050565b7f4d75737420627579206174206c65617374206f6e65207469636b657400000000600082015250565b6000612069601c83611fb6565b915061207482612033565b602082019050919050565b600060208201905081810360008301526120988161205c565b9050919050565b7f4e487b7100000000000000000000000000000000000000000000000000000000600052601160045260246000fd5b60006120d982611cde565b91506120e483611cde565b92508282019050808211156120fc576120fb61209f565b5b92915050565b7f45786365656473206d6178696d756d207469636b657473207065722075736572600082015250565b6000612138602083611fb6565b915061214382612102565b602082019050919050565b600060208201905081810360008301526121678161212b565b9050919050565b600061217982611cde565b915061218483611cde565b925082820261219281611cde565b915082820484148315176121a9576121a861209f565b5b5092915050565b6000815190506121bf81611db1565b92915050565b6000602082840312156121db576121da611dac565b5b60006121e9848285016121b0565b91505092915050565b7f496e73756666696369656e742050595553442062616c616e6365000000000000600082015250565b6000612228601a83611fb6565b9150612233826121f2565b602082019050919050565b600060208201905081810360008301526122578161221b565b9050919050565b60006060820190506122736000830186611e1c565b6122806020830185611e1c565b61228d6040830184611ce8565b949350505050565b61229e81611ca8565b81146122a957600080fd5b50565b6000815190506122bb81612295565b92915050565b6000602082840312156122d7576122d6611dac565b5b60006122e5848285016122ac565b91505092915050565b7f5059555344207472616e73666572206661696c65640000000000000000000000600082015250565b6000612324601583611fb6565b915061232f826122ee565b602082019050919050565b6000602082019050818103600083015261235381612317565b9050919050565b600060408201905061236f6000830185611e1c565b61237c6020830184611ce8565b9392505050565b7f4e6f207469636b65747320736f6c642079657400000000000000000000000000600082015250565b60006123b9601383611fb6565b91506123c482612383565b602082019050919050565b600060208201905081810360008301526123e8816123ac565b9050919050565b7f50657263656e74616765206d7573742062652067726561746572207468616e2060008201527f7a65726f00000000000000000000000000000000000000000000000000000000602082015250565b600061244b602483611fb6565b9150612456826123ef565b604082019050919050565b6000602082019050818103600083015261247a8161243e565b9050919050565b7f4e487b7100000000000000000000000000000000000000000000000000000000600052601260045260246000fd5b60006124bb82611cde565b91506124c683611cde565b9250826124d6576124d5612481565b5b828204905092915050565b7f496e73756666696369656e742061646d696e2050595553442062616c616e6365600082015250565b6000612517602083611fb6565b9150612522826124e1565b602082019050919050565b600060208201905081810360008301526125468161250a565b9050919050565b7f496e746572657374207472616e73666572206661696c65640000000000000000600082015250565b6000612583601883611fb6565b915061258e8261254d565b602082019050919050565b600060208201905081810360008301526125b281612576565b9050919050565b7f44726177206e6f7420636f6d706c657465642079657400000000000000000000600082015250565b60006125ef601683611fb6565b91506125fa826125b9565b602082019050919050565b6000602082019050818103600083015261261e816125e2565b9050919050565b7f4e6f20706c6174666f726d2066656520746f20636c61696d0000000000000000600082015250565b600061265b601883611fb6565b915061266682612625565b602082019050919050565b6000602082019050818103600083015261268a8161264e565b9050919050565b7f506c6174666f726d20666565207472616e73666572206661696c656400000000600082015250565b60006126c7601c83611fb6565b91506126d282612691565b602082019050919050565b600060208201905081810360008301526126f6816126ba565b9050919050565b7f4e487b7100000000000000000000000000000000000000000000000000000000600052603260045260246000fd5b7f4e6f207469636b65747320746f20636c61696d00000000000000000000000000600082015250565b6000612762601383611fb6565b915061276d8261272c565b602082019050919050565b6000602082019050818103600083015261279181612755565b9050919050565b7f416c726561647920636c61696d65640000000000000000000000000000000000600082015250565b60006127ce600f83611fb6565b91506127d982612798565b602082019050919050565b600060208201905081810360008301526127fd816127c1565b9050919050565b7f526566756e64207472616e73666572206661696c656400000000000000000000600082015250565b600061283a601683611fb6565b915061284582612804565b602082019050919050565b600060208201905081810360008301526128698161282d565b9050919050565b7f5072697a65207472616e73666572206661696c65640000000000000000000000600082015250565b60006128a6601583611fb6565b91506128b182612870565b602082019050919050565b600060208201905081810360008301526128d581612899565b9050919050565b60006060820190506128f16000830186611e1c565b6128fe6020830185611ce8565b61290b6040830184611ce8565b949350505050565b7f4e656564206174206c656173742074776f207061727469636970616e74730000600082015250565b6000612949601e83611fb6565b915061295482612913565b602082019050919050565b600060208201905081810360008301526129788161293c565b9050919050565b7f496e74657265737420706f6f6c20697320656d70747900000000000000000000600082015250565b60006129b5601683611fb6565b91506129c08261297f565b602082019050919050565b600060208201905081810360008301526129e4816129a8565b9050919050565b6000819050919050565b612a06612a0182611cde565b6129eb565b82525050565b6000612a1882856129f5565b602082019150612a2882846129f5565b6020820191508190509392505050565b6000612a4382611cde565b9150612a4e83611cde565b925082612a5e57612a5d612481565b5b828206905092915050565b6000612a7582866129f5565b602082019150612a8582856129f5565b602082019150612a9582846129f5565b602082019150819050949350505050565b6000604082019050612abb6000830185611e1c565b612ac86020830184611e1c565b9392505050565b7f4f776e61626c653a206e6577206f776e657220697320746865207a65726f206160008201527f6464726573730000000000000000000000000000000000000000000000000000602082015250565b6000612b2b602683611fb6565b9150612b3682612acf565b604082019050919050565b60006020820190508181036000830152612b5a81612b1e565b9050919050565b7f4f776e61626c653a2063616c6c6572206973206e6f7420746865206f776e6572600082015250565b6000612b97602083611fb6565b9150612ba282612b61565b602082019050919050565b60006020820190508181036000830152612bc681612b8a565b9050919050565b6000612bd882611cde565b91507fffffffffffffffffffffffffffffffffffffffffffffffffffffffffffffffff8203612c0a57612c0961209f565b5b60018201905091905056fea2646970667358221220d17738b20e0b54a215d79281d6f584efb2c3a527d7688322d6742ffa999d34fd64736f6c63430008120033",
  "linkReferences": {},
  "deployedLinkReferences": {}
}